:020000040800F2
:1000000088050020010100083D070008450600089A
:1000100039070008FF0400085F0F00080000000017
:10002000000000000000000000000000DD080008E3
:100030000305000800000000C5070008F1090008DA
:100040001B0100081B0100081B0100081B01000820
:100050001B0100081B0100081B0100081B01000810
:100060001B0100081B0100081B0100081B01000800
:100070001B0100081B0100081B0100081B010008F0
:100080001B0100081B0100081B0100081B010008E0
:100090001B0100081B0100081B0100081B010008D0
:1000A0001B0100081B0100081B0100081B010008C0
:1000B0001B010008550A00081B0100081B0100086D
:1000C0001B0100081B0100081B0100081B010008A0
:1000D0001B010008C90B00081B0100089D0C00084B
:1000E0001B0100081B0100081B010008DFF80CD0F1
:1000F00000F090F900480047AD3200088805002064
:100100000648804706480047FEE7FEE7FEE7FEE7B1
:10011000FEE7FEE7FEE7FEE7FEE7FEE7F50900087B
:10012000ED00000840EA01039B0703D009E008C97D
:10013000121F08C0042AFAD203E011F8013B00F8AC
:10014000013B521EF9D27047D2B201E000F8012BF8
:10015000491EFBD270470022F6E710B513460A4647
:1001600004461946FFF7F0FF204610BDF0B480EAC0
:100170000102D40F4200B2EB410F02D20246084600
:1001800011464A0042D0C30DDDB2C1F3C752AD1AC9
:10019000202D35DAC1F3160141F4000204B15242B8
:1001A000C5F1200602FA06F12A411044B3EBD05FF4
:1001B00023D0C4B1012DA0EBC35009DCF0BC4FF03B
:1001C000004202EAC352DBB200F5000000F0F4B8CE
:1001D000400000F1807000EBC350A0F1807040EA55
:1001E000D170490009E0490841EAC071A0EBC35051
:1001F00000F50000400800EBC350F0BC00F0D3B89D
:100200006142012202EB4101001BF6E7F0BC70479E
:1002100081F00041AAE780F00040A7E780EA0102F0
:1002200010B502F00043400022D04A001FD0010E5A
:1002300001EB1261C0F35600C2F3560240F4000015
:1002400042F40002A0FB022000047F39140400D015
:10025000401C50EA124001D44000491EC2B20C06B4
:1002600004EBD010401C4008802A02D003E000209C
:1002700010BD20F00100002900DA0020184310BD55
:1002800030B480EA010202F0004530F0004221F073
:10029000004013D090B1C30DD40DC2F31601C0F3CA
:1002A0001600E41A41F4000140F400027D3491424A
:1002B00001D3641C00E04900002C02DA30BC0020AD
:1002C00070474FF400000023914201D3891A034381
:1002D00040084FEA4101F7D151B1914202D14FF0AC
:1002E000004105E002D24FF0010101E06FF0010191
:1002F00003EBC450284430BC00F055B896230022CC
:10030000114600F059B820F00040C10DC0F31600AE
:1003100040F400007F2901DA00207047962903DCB1
:10032000C1F19601C8407047963988407047000077
:10033000002801DBC0F10040002901DBC1F10041D0
:10034000814270472DE9F05F0546002092469B46AA
:1003500088460646814640241BE0284641464746DB
:10036000224600F078F853465A46C01A914110D3FD
:1003700011461846224600F05FF82D1A67EB010877
:100380004F4622460120002100F056F817EB0009E5
:100390004E41201EA4F10104DFDC484631462A46C6
:1003A0004346BDE8F09F0029A8BF7047401C4900A4
:1003B00008BF20F00100704710B4B0FA80FC00FACA
:1003C0000CF050EA010404BF10BC704749B1CCF1F5
:1003D000200421FA04F411FA0CF118BF0121214381
:1003E0000843A3EB0C01CB1D4FEA00614FEA10203C
:1003F00042BF002010BC704700EBC35010440029DE
:10040000A4BF10BC7047401C490008BF20F0010089
:1004100010BC7047064C074D06E0E06840F0010351
:1004200094E8070098471034AC42F6D3FFF762FE19
:100430007436000894360008202A04DB203A00FABB
:1004400002F1002070479140C2F1200320FA03F32B
:10045000194390407047202A04DB203A21FA02F029
:100460000021704721FA02F3D040C2F120029140EE
:1004700008431946704710B5044602F0D1FE4620E5
:1004800002F0A4FE02F0F4FE012800D110BD2046C7
:1004900002F09CFE02F0ECFE012801D10220F5E7FB
:1004A00002F0D6FE0020F1E710B500F0CDF800F024
:1004B00004F81020FFF7DFFF10BD10B50120FFF793
:1004C000DAFF10BD10B5002402F0AAFE472002F0AA
:1004D0007DFE02F0CDFE012801D1002010BD02F00A
:1004E00053FE044602F01CFE02F04EFE00EB042018
:1004F00084B202F035FE02F0ABFE2046EEE700BF0C
:10050000FEE770472DE9F041024600250026002055
:1005100000230024002791F803C00CF00F0591F888
:1005200003C00CF0100CBCF1000F03D091F802C016
:100530004CEA050591F800C0BCF1000F31D01468F9
:1005400000202BE04FF0010C0CFA00F3B1F800C0D2
:100550000CEA03069E4220D183004FF00F0C0CFAE8
:1005600003F7BC4305FA03FC4CEA040491F803C00A
:10057000BCF1280F06D14FF0010C0CFA00FCC2F8B8
:1005800014C00AE091F803C0BCF1480F05D14FF048
:10059000010C0CFA00FCC2F810C0401C0828D1D392
:1005A0001460B1F800C0BCF1FF0F34DD54680020C6
:1005B0002EE000F1080C4FF0010808FA0CF3B1F836
:1005C00000C00CEA03069E4221D183004FF00F0CBD
:1005D0000CFA03F7BC4305FA03FC4CEA040491F857
:1005E00003C0BCF1280F05D100F1080C08FA0CF883
:1005F000C2F8148091F803C0BCF1480F07D100F194
:10060000080C4FF0010808FA0CF8C2F81080401CE2
:100610000828CED35460BDE8F081000010B541F643
:100620001F41092000F026FA4FF4165000F04AFB53
:10063000034800210160017102F0FCFB10BD0000C5
:100640001400002000BFFEE708B50121082000F0DB
:10065000CBF8C020ADF8000003208DF80200142074
:100660008DF8030069460348FFF74CFF02F0F0FDE8
:1006700008BD0000000C014008B50121082000F071
:10068000B3F848208DF803000320ADF80000694658
:100690000148FFF737FF08BD000C014010B51148B5
:1006A000006818B10F48001D0068C0B9052000F0AF
:1006B000B0FE0C48006830B900BF0A480068002846
:1006C000FBD0012010BD0748001D006838B900BFED
:1006D0000448001D00680028FAD00220F2E700203C
:1006E000F0E700000081214208B50121102000F050
:1006F0007BF810208DF803004002ADF800000320C5
:100700008DF8020069460248FFF7FCFE08BD0000B4
:100710000010014070B5FFF7D5FE0646FFF7EEFD6D
:1007200005460449FFF7ACFD04464FF07E51FFF744
:1007300075FD70BDCDCC8C3F00BFFEE7704700005B
:1007400070B5002100230F22C47804B3154C24682F
:1007500004F4E064C4F5E064210AC1F10403CA4072
:10076000447804FA03F184781440214309010E4CC3
:100770000678A155047804F01F050124AC400578E3
:100780006D11AD0005F1E025C5F8004109E00478E0
:1007900004F01F050124AC40044D0678761145F89D
:1007A000264070BD0CED00E000E400E080E100E0D8
:1007B00002490143024A1160704700000000FA0537
:1007C0000CED00E07047000029B1064AD2690243EF
:1007D000044BDA6104E0034AD2698243014BDA61D7
:1007E000704700000010024029B1064A9269024396
:1007F000044B9A6104E0034A92698243014B9A6177
:10080000704700000010024030B500210022002493
:1008100000232D4D6D6805F00C0121B1042905D090
:10082000082923D105E0294D056022E0274D056008
:100830001FE0254D6D6805F47012234D6D6805F4B9
:100840008034022505EB92421CB9214D55430560C9
:100850000BE01D4D6D6805F400351DB11C4D554371
:10086000056002E0194D5543056002E0174D056033
:1008700000BF00BF144D6D6805F0F0010909154D6A
:100880006B5C0568DD4045600F4D6D6805F4E06107
:10089000090A104D6B5C4568DD4085600A4D6D6846
:1008A00005F46051C90A0B4D6B5C4568DD40C560BD
:1008B000054D6D6805F44041890B074D6B5CC568BB
:1008C000B5FBF3F5056130BD0010024000127A005F
:1008D00000093D000000002010000020704710B506
:1008E00000F002F810BD00000CB50020019000904F
:1008F0003348006840F480303149086000BF304818
:10090000006800F4003000900198401C01900098AD
:1009100018B90198B0F5A06FF1D12948006800F42A
:10092000003010B10120009001E0002000900098FC
:10093000012843D12348006840F010002149086095
:100940000846006820F0030008600846006840F090
:10095000020008601A484068194948600846406823
:1009600048600846406840F4806048600846406837
:1009700020F47C1048600846406840F4E810486065
:100980000846006840F08070086000BF0C480068AE
:1009900000F000700028F9D00948406820F00300FA
:1009A000074948600846406840F00200486000BFC0
:1009B0000348406800F00C000828F9D10CBD000085
:1009C0000010024000200240042808D14FF0E0212E
:1009D000096941F004014FF0E022116107E04FF096
:1009E000E021096921F004014FF0E0221161704714
:1009F0007047000010B51348006840F0010011492D
:100A0000086008464068104908400E49486008469A
:100A100000680E4908400B4908600846006820F449
:100A2000802008600846406820F4FE0048604FF4CB
:100A30001F008860FFF753FF4FF000600449086013
:100A400010BD0000001002400000FFF8FFFFF6FE9E
:100A500008ED00E010B50121054800F048F828B184
:100A60000121034800F034F801F04CFF10BD0000F4
:100A7000000400407FB505460C4601210220FFF727
:100A8000A3FEADF80850ADF804400020ADF80A0010
:100A9000ADF8060001A90D4800F044F81D208DF8BE
:100AA000000002208DF801008DF8020001208DF871
:100AB000030001221146054800F02AF86846FFF7B6
:100AC0003FFE0121014800F006F87FBD0004004010
:100AD000CA430282704721B1028842F001020280BB
:100AE00004E002884FF6FE731A400280704730B56A
:100AF0000246002000230024158A05EA0103958997
:100B000005EA010413B10CB1012000E0002030BD62
:100B10001AB183890B43838102E083898B438381EC
:100B200070470000002202881D4B98420ED01D4BDA
:100B300098420BD0B0F1804F08D01B4B984205D0A3
:100B40001A4B984202D01A4B984204D14FF68F7339
:100B50001A404B881A43174B984207D0164B9842BD
:100B600004D04FF6FF431A40CB881A4302808B888B
:100B700083850B8803850A4B98420BD0094B98421A
:100B800008D00E4B984205D00D4B984202D00D4B29
:100B9000984201D10B7A03860123838270470000BB
:100BA000002C0140003401400004004000080040D7
:100BB000000C0040001000400014004000400140C4
:100BC000004401400048014010B540F2255105485D
:100BD00000F001F9012804D140F22551014800F04C
:100BE000D2F810BD0038014010B586B0044601218E
:100BF0000420FFF7F9FD01218803FFF7F5FD01212E
:100C00000846FFF7F1FD4FF40070ADF81400032023
:100C10008DF8160018208DF8170005A91D48FFF75C
:100C200071FC4FF48060ADF8140003208DF81600BD
:100C300004208DF8170005A91648FFF763FC0194FE
:100C40000020ADF80800ADF80A00ADF80C00ADF8D2
:100C500010000C20ADF80E0001A90F4800F00AF9B1
:100C600025208DF8000002208DF801008DF802008B
:100C700001208DF803006846FFF762FD012240F273
:100C80002551054800F0D1F80121034800F08AF809
:100C900006B010BD000801400038014008B540F220
:100CA0002551074800F097F840B1054800F04EF98B
:100CB000C0B200900121684601F0DCFC08BD0000D4
:100CC0000048004010B586B0044601210820FFF717
:100CD0008BFD01218804FFF777FD4FF48060ADF8AC
:100CE000140003208DF8160018208DF8170005A9B0
:100CF0001E48FFF707FC4FF40060ADF81400042015
:100D00008DF8170005A91948FFF7FCFB0194002096
:100D1000ADF80800ADF80A00ADF80C00ADF8100011
:100D20000C20ADF80E0001A9114800F0A3F8012134
:100D30000F4800F037F840210D4800F01BF8012261
:100D400040F225510A4800F070F827208DF8000085
:100D500002208DF801008DF8020001208DF80300BB
:100D60006846FFF7EDFC06B010BD0000000C014026
:100D70000048004001F40072B2F5007F00D100BFCE
:100D8000CA430280704710B50022002340F66A145F
:100D9000A14200D100BF0A1201249440A3B2DC4357
:100DA000048010BD21B1828942F40052828104E0A6
:100DB00082894DF6FF731A408281704702460020F7
:100DC000B1F5007F00D100BF13880B400BB10120AB
:100DD00000E00020704770B5024600240023002583
:100DE000002040F66A16B14200D100BFC1F342159F
:100DF00001F01F03012606FA03F3012D02D19689A3
:100E0000334006E0022D02D1168A334001E0968A73
:100E100033400C12012606FA04F41688344013B14C
:100E20000CB1012000E0002070BDF0B503460024A5
:100E300000260025002040F66A17B94200D100BF05
:100E40001846C1F3421401F01F06012707FA06F500
:100E5000012C01D10C3004E0022C01D1103000E053
:100E600014301AB107682F43076002E00768AF43E8
:100E70000760F0BD2DE9F04786B005460E46002418
:100E8000A24600BFA1460027B08900B100BF2F468F
:100E90002C8A4CF6FF700440F08804432C82AC8905
:100EA0004EF6F3100440B088318908437189084335
:100EB0000443AC81AC8A4FF6FF400440B089044340
:100EC000AC8201A8FFF7A0FC1F48874202D1DDF8E1
:100ED00010A001E0DDF80CA0A88900F4004040B1AA
:100EE0000AEBCA0000EB0A1031684900B0FBF1F8C8
:100EF00007E00AEBCA0000EB0A1031688900B0FB7A
:100F0000F1F86420B8FBF0F004012009642101FB32
:100F10001089A88900F4004040B1322000EBC900DC
:100F2000B0FBF1F000F00700044308E0322000EBD2
:100F300009106421B0FBF1F000F00F0004432C8194
:100F400006B0BDE8F08700000038014001468888FF
:100F5000C0F308007047C1F308028280704700BFE9
:100F6000FEE700000FB4054B10B503A9044A029830
:100F700000F018F810BC5DF814FB0000891400089C
:100F80001C00002002E008C8121F08C1002AFAD184
:100F900070477047002001E001C1121F002AFBD1F9
:100FA000704700002DE9FF4F8DB00F460546002623
:100FB00006E025280BD0DDE90F1290476D1C761C4A
:100FC00028780028F5D111B03046BDE8F08F002414
:100FD000A246A1460122EC4900E0044315F8013F76
:100FE000203B02FA03F00842F7D128782A2810D0D3
:100FF0006FF02F022878A0F13001092914D80AEBEC
:101000008A0102EB410144F0020400EB010A6D1C6D
:10101000F0E701CF5FEA000A03D544F40054CAF1B7
:10102000000A44F002046D1C28782E2817D115F808
:10103000010F44F004042A280ED06FF02F02287804
:10104000A0F1300109290AD809EB890102EB41011D
:1010500000EB01096D1CF2E757F8049B6D1C287822
:101060006C280FD006DC4C2817D068280DD06A28D1
:1010700014D104E0742810D07A280FD10DE044F484
:1010800000140AE044F4801401E044F44014697848
:10109000814202D104F580146D1C6D1C2A786E2AE1
:1010A0001FD00CDC632A31D004DC002A8BD0582AF4
:1010B00011D1A3E0642A68D0692A0CD165E0732AB3
:1010C0002ED004DC6F2A73D0702A04D19BE0752ADD
:1010D0006FD0782A6ED01046DDE90F129047761C4B
:1010E00050E1C4F30250022806D0032809D0042896
:1010F00001CF09D0066045E101CFF117C0E90061D9
:1011000040E101CF06803DE106703BE117F8040B9A
:101110008DF8000000208DF80100EB46012003E06F
:1011200057F804BB4FF0FF3061074FF0000102D4C5
:101130000DE008F10101884649450FDA8045F8DBEA
:101140001BF808100029F4D108E008F101018846D5
:101150008142FADB1BF808100029F6D1DDE90F23E4
:10116000AAEB08008146214600F036F9304400EB36
:10117000080604E0DDE90F121BF8010B9047B8F1F7
:101180000108F7D221464846F7E00A21C4F302538A
:101190004FF0000B0891022B04D001CFC117032B95
:1011A00009D00AE0FF1D27F00707F7E8020108E071
:1011B00032E01FE020E000B2C117042B01D140B2A1
:1011C000C117031E71F1000307DA4FF0000CD0EBDA
:1011D0000C006CEB01012D2302E0230504D52B2329
:1011E0008DF82430012303E0E30701D02023F7E743
:1011F000984658E00A2110E010210EE010204FF030
:10120000000B08900CE010214FF0000B44F0040498
:101210004FF00809089103E008214FF0000B0891F6
:10122000C4F30253022B04D001CF0021032B06D0BC
:1012300006E0FF1D27F00707F7E8020103E080B290
:10124000042B00D1C0B24FF0000823072BD5702A21
:1012500007D0DDF820C08CF0100C5CEA0B0C05D038
:101260000EE040238DF82430012308E050EA01030A
:1012700006D030238DF824308DF82520022398469F
:10128000DDF820C08CF0080C5CEA0B0C0BD150EAA6
:10129000010301D1630706D530238DF824304FF0C8
:1012A0000108A9F10109582A04D038A20B9208AA12
:1012B0000A920BE03AA2F9E75B46089AFFF742F878
:1012C0000B9B9B5C0A9A521E0A92137050EA010211
:1012D000F2D10A98ADEB000000F1200B600702D5B7
:1012E00024F4803401E04FF00109D94502DDA9EB77
:1012F0000B0000E0002000EB0B0141440890AAEB3A
:10130000010AE00306D4DDE90F232146504600F030
:1013100063F806444FF0000908E009A911F8090034
:10132000DDE90F12904709F10109761CC145F4DB94
:10133000E0030CD5DDE90F232146504600F04CF8C0
:10134000064404E0DDE90F1230209047761C08992E
:10135000481E08900029F5DC08E00A980A990078F0
:10136000491C0A91DDE90F129047761CBBF1000180
:10137000ABF1010BF1DC21465046DDE90F2300F013
:1013800019F806446D1C1BE6092801003031323380
:1013900034353637383961626364656600000000B1
:1013A000303132333435363738394142434445469B
:1013B000000000002DE9F041044600251E461746B6
:1013C000880404D405E039462020B0476D1C641E13
:1013D000F9D52846BDE8F0812DE9F0410446002505
:1013E0001E469046C80301D5302700E02027880418
:1013F00004D505E041463846B0476D1C641EF9D55A
:101400002846BDE8F08110B56FF00400FFF7DCFA64
:1014100010BD014642F228324A434FF0E0235A61A0
:1014200000229A611A46126942F001021A6100BF55
:101430004FF0E022106900F48032002AF8D04FF01B
:10144000E022126922F001024FF0E0231A6100222B
:101450009A61704701B581B000200090694601AAE9
:101460005078087010784870BDF800000CBD014637
:10147000080601F47F4240EA022001F47F0240EABC
:10148000122040EA1160704770B504460D46A1B2C3
:101490000548FFF760FD00BF80210348FFF78EFC81
:1014A0000028F9D0204670BD00380140024612B134
:1014B00002F0070028B9082901D800207047012050
:1014C000FCE702F00700C0F10800884201D30020C9
:1014D000F4E70120F2E730B502460B460021002474
:1014E00000250AB9481E30BD002108E0545C581A96
:1014F000401E155C5554581A401E1454491CB1EB3B
:10150000530FF3D30020EEE72DE9F04104460D46DA
:101510000026002704B135B915A0FFF723FD4FF0D1
:10152000FF30BDE8F08100F02BF9074628782178DC
:10153000884203D018A0FFF715FD0126D4F801104A
:10154000D5F80100FEF7F4FE0AD019480068381AF1
:1015500041F27071884203D316A0FFF703FD012604
:10156000012E03D100F00CF9114908603046D8E78C
:1015700067697A436865636B5265706F7274204562
:1015800072726F72202C20496C6C6567616C205000
:101590006172616D0A00000076616C75654C4544AE
:1015A000537769746368204368616E6765640A00F5
:1015B0002800002076616C75654C6967687420436B
:1015C00068616E6765640A00F8B505460C46164604
:1015D0000DB104B12EB910A0FFF7C4FC4FF0FF30DD
:1015E000F8BD287800F0010098B111212278601C24
:1015F00081542078401C207001206B1C0246002181
:101600000090084601F01CF908B1012000E000201C
:1016100030700020E4E7000067697A44617461502B
:101620006F696E74324576656E74204572726F72A2
:10163000202C20496C6C6567616C20506172616D73
:101640000A000000F8B505460C4605B12CB910A0FB
:10165000FFF788FC4FF0FF30F8BD0020207028789D
:101660002346012200210090084601F0A9F801213B
:101670002046FFF730FFD5F801200021104801F087
:1016800049F90646FFF7F3FEC4F801000020E3E73E
:1016900067697A44617461506F696E747332526520
:1016A000706F727444617461204572726F72202C85
:1016B00020496C6C6567616C20506172616D0A0035
:1016C000CDCCCC3D70B5044600F05AF805461D4916
:1016D0002046FFF719FF012813D11BA0FFF742FC9A
:1016E00018490A392046FFF7ADFF28B905221549E8
:1016F0000A39042000F0F8FF1248216801602179BE
:1017000001711748B5FBF0F100FB1150C8B915483D
:101710000068A84215D014A0FFF724FC09490A3933
:101720002046FFF78FFF28B9052206490A39042011
:1017300000F0DAFF0348216801602179017109484E
:10174000056070BDF10000206368616E6765642C00
:10175000207265706F727420646174610A00000009
:10176000C02709002C000020496E666F3A203630F1
:101770003053207265706F727420646174610A0066
:1017800001480068704700002000002010B517488D
:1017900090F84200012827D1144890F8410002280F
:1017A0001DDAFFF7EDFF1149D1F85F10401AC82884
:1017B0001AD9FFF7E5FF04460C4890F84130D0F8FD
:1017C0005F2021460AA0FFF7CDFB00F0ABFE0748E3
:1017D00090F84100401C054981F8410004E02221B5
:1017E00002484130FEF7B7FC10BD00003800002071
:1017F0005761726E696E673A67697A50726F746F7B
:10180000636F6C526573656E644461746120256416
:101810002025642025640A003EB50446002524B92D
:1018200013A0FFF79FFB681E3EBD20680090606814
:1018300001909DF80400401CC0B28DF80400052002
:10184000FFF708FEADF802000921684600F0A8FE87
:101850008DF808000921684601F09CFE0546002D20
:1018600003DA29460DA0FFF77DFB2846DCE70000E0
:101870004552523A2067697A50726F746F636F6C89
:10188000436F6D6D6F6E41636B206461746120699D
:101890007320656D707479200A0000004552523A39
:1018A0002075617274207772697465206572726F39
:1018B00072202564200A0000FEB504460E4600256D
:1018C00024B914A0FFF74EFB681EFEBD684600F069
:1018D000D7F912208DF8040060798DF805000620F4
:1018E000FFF7B8FDADF802008DF808600A216846E0
:1018F00000F056FE8DF809000A21684601F04AFE04
:101900000546002D03DA29460DA0FFF72BFB2846DC
:10191000DBE7000067697A50726F746F636F6C4524
:1019200072726F72436D64204572726F72202C2048
:10193000496C6C6567616C20506172616D0A0000D2
:101940004552523A2075617274207772697465202D
:101950006572726F72202564200A000030B59DB058
:10196000044600252CB92BA0FFF7FCFA681E1DB019
:1019700030BD684600F084F902208DF804006079DB
:101980008DF805002FA103C9CDE9020130A103C9DB
:10199000CDE9040131A103C9CDE9080132A103C990
:1019A000CDE90601202233A10AA8FEF7BBFB2022C5
:1019B00039A10DF15200FEF7B5FB0020CDF84A0029
:1019C000CDF84E009DF851008DF851009DF8510062
:1019D00040F002018DF851100020FFF73BFDADF8FB
:1019E00048006F20FFF736FDADF80200732168460E
:1019F00000F0D6FD8DF872007321684601F0CAFD33
:101A00000546002D03DA29462CA0FFF7ABFA28463D
:101A1000ADE7000067697A50726F746F636F6C474F
:101A20006574446576696365496E666F20457272B8
:101A30006F72202C20496C6C6567616C205061725C
:101A4000616D0A003030303030303034000000003A
:101A5000303030303030303200000000303330333E
:101A60003030303000000000303330313031303031
:101A70000000000062353163363138383961353362
:101A800034386139623165653332306231316637FD
:101A9000343432330000000066633230303935644C
:101AA00061393339346235353937616366383036F8
:101AB0003931643434393061000000004552523A03
:101AC0002075617274207772697465206572726F17
:101AD00072202564200A00002DE9FE4F80460E4644
:101AE00017464FF0000B00200290814682460025E9
:101AF00034460090B8F1000F01D006B137B950A0BC
:101B0000FFF730FA4FF0FF30BDE8FE8F404601F09E
:101B100065FC00F0FF0ABAF1000F02D14FF0FF3070
:101B2000F2E74FF000095DE0012201A9404601F013
:101B300092FC8346BBF1000F52D04D480078FF283D
:101B40001FD19DF80400FF281BD14A48007848B9EE
:101B5000FF2020706070022047490880012045491D
:101B6000087034E044480088042830DD424800888A
:101B7000A8422CD0FF202070607002203E490880CF
:101B800025E03B480078FF2803D19DF80400552844
:101B90001DD038480078012819D19DF80400364935
:101BA0000988605434480088401C3349088008463E
:101BB000008804280BDD0094009C6088FFF74AFC35
:101BC000001D85B22C480088A84200D10CE09DF889
:101BD00004002749087029480078401C27490870EC
:101BE00009F10109D1459FDB00BF23480088042883
:101BF00023DD21480088A8421FD11F4801882046C4
:101C000000F0CEFC02901C480088401E215C029827
:101C100081420FD12A4621463046FEF783FA3D80A5
:101C200000201449087014490880144908701049AC
:101C3000087069E76FF0010066E7012064E70000C3
:101C400067697A50726F746F636F6C4765744F6E1B
:101C5000655061636B6574204572726F72202C2031
:101C6000496C6C6567616C20506172616D0A00009F
:101C70003400002030000020320000203500002019
:101C800010B504462CB907A0FFF76CF94FF0FF30F0
:101C900010BD002020606060FF2020706070002078
:101CA000F6E700004552523A2067697A50726F7425
:101CB0006F636F6C48656164496E69742068656123
:101CC0006420697320656D707479200A000000003B
:101CD0002DE9F04F8FB006468B46174699460020F7
:101CE0000E9082468046002501ACBBF1000F06D164
:101CF00031A0FFF737F9681E0FB0BDE8F08FB9F1DA
:101D0000010F06D196F8088008F10600384485B224
:101D100001E0781D85B22B46424639462CA0FFF7DC
:101D200021F9FF2004F8010B04F8010B281204F834
:101D3000010B04F8015B3079401C04F8010B707949
:101D400004F8010B002004F8010B04F8019B4FF08C
:101D5000080AB9F1010F0DD104F8018B0AF1010A4B
:101D600001A901EB0A00424606F10901FEF7DAF982
:101D7000C244444437B101A901EB0A003A4659462E
:101D8000FEF7D0F9291D01A800F00AFC0146E81C65
:101D900001AA1154291D01A801F0FCFB0E900E9818
:101DA000002806DA14A00E99FFF7DCF86FF00100A6
:101DB000A2E70020A0E700005B4552525D202064AE
:101DC000617461204973204E756C6C200A0000001C
:101DD0006C656E203D202564202C20734469644C82
:101DE000656E203D202564202C646174615F6C6504
:101DF0006E203D2025640A00756172742077726937
:101E00007465206572726F72202564200A000000DC
:101E10002DE9F04780460C4617461D46089E94F86B
:101E200000900CB105B136B930A0FFF79BF84FF028
:101E3000FF30BDE8F087B8F1000F54D113213748C7
:101E4000FEF789F9B9F1010F06D0B9F1020F11D0EF
:101E5000B9F1050F45D124E0304A51322F49601CB9
:101E6000FFF7B2FB01202D496339087000250020DF
:101E7000306037E029494C3101F10A00FFF7E2FBFD
:101E800058B926484C300168C5F8011000796871CE
:101E9000032028700620306002E04FF0FF30C8E7D2
:101EA00020E07A1E611C1D484838FEF73BF9781E79
:101EB0001A496339C1F8350010211848633890F881
:101EC000632064308154643890F86300401C1349E7
:101ED000633981F86300032008700025002030601A
:101EE00000E000BF00BF0020A3E7000067697A5050
:101EF000726F746F636F6C49737375656450726F42
:101F000063657373204572726F72202C20496C6C6C
:101F10006567616C20506172616D0A009B00002052
:101F200070B5044625462CB90FA0FFF71BF84FF0FB
:101F3000FF3070BD412205F108010F48FEF7F2F8AD
:101F40000F210D48CB3890F89C209D3081549D384E
:101F500090F89C00401C0849CB3981F89C00052072
:101F600008700020E5E700004E545020697320659A
:101F70006D707479200A00000301002010B504463A
:101F80002CB9CAA0FEF7EEFF4FF0FF3010BD20893C
:101F9000FFF760FA2081D1480078C0F38000217AF1
:101FA000C1F38001884256D0207AC0F38000002817
:101FB00029D0207A00F0010078B10021C84890F8BB
:101FC000762077308154773890F87600401CC449E9
:101FD00081F87600C3A0FEF7C5FF207AC0F3400069
:101FE000002838D00121BE4890F8762077308154FF
:101FF000773890F87600401CB94981F87600C1A086
:10200000FEF7B0FF27E0207A00F0010078B1002150
:10201000B34890F8762077308154773890F876007E
:10202000401CAF4981F87600AEA0FEF79BFF207AF6
:10203000C0F3400078B10221A94890F876207730AB
:102040008154773890F87600401CA54981F87600D5
:10205000B3A0FEF787FFA1480078C0F3C000217A43
:10206000C1F3C00188422CD0207AC1089B48007877
:1020700061F3C30099490870207AC0F3C00080B1B1
:102080000321974890F8762077308154773890F87C
:102090007600401C924981F87600A8A0FEF762FF06
:1020A0000FE004218E4890F87620773081547738FD
:1020B00090F87600401C8A4981F87600A7A0FEF7C8
:1020C00051FF86480078C0F30010217AC1F3001157
:1020D00088422CD0207A01098048007861F30410EE
:1020E0007E490870207AC0F3001080B105217C4839
:1020F00090F8762077308154773890F87600401C3D
:10210000774981F876009DA0FEF72CFF0FE00621AD
:10211000734890F8762077308154773890F87600BD
:10212000401C6F4981F876009CA0FEF71BFF6B48AE
:102130000078C0F34010217AC1F3401188422CD0BE
:10214000207A41096548007861F3451063490870B9
:10215000207AC0F3401080B10721614890F87620C2
:1021600077308154773890F87600401C5C4981F8CC
:10217000760093A0FEF7F6FE0FE00821584890F88D
:10218000762077308154773890F87600401C544997
:1021900081F8760091A0FEF7E5FE50484078C0F344
:1021A000C001607AC0F3C00081422CD0607AC108BF
:1021B0004A48407861F3C30048494870607AC0F3E8
:1021C000C00080B10B21464890F8762077308154CA
:1021D000773890F87600401C414981F8760087A056
:1021E000FEF7C0FE0FE00C213D4890F876207730D6
:1021F0008154773890F87600401C394981F8760090
:1022000085A0FEF7AFFE35484078C0F30011607A34
:10221000C0F3001081422CD0607A01092F48407829
:1022200061F304102D494870607AC0F3001080B14A
:1022300009212B4890F8762077308154773890F830
:102240007600401C264981F876007BA0FEF78AFEC6
:102250000FE00A21224890F87620773081547738B1
:1022600090F87600401C1E4981F8760079A0FEF7B0
:1022700079FE0D211A4890F876207730815477380E
:1022800090F87600401C164981F87600607A00F0DC
:10229000070081F8BE00084690F8BE1074A0FEF753
:1022A00061FE02200E49087000206FE667697A50CF
:1022B000726F746F636F6C4D6F64756C655374618E
:1022C000747573204572726F72202C20496C6C6596
:1022D00067616C20506172616D0A00003600002059
:1022E000380000204F6E426F617264696E673A2059
:1022F000536F66744150206F7220576562206D6F76
:1023000064650A004F6E426F617264696E673A20BD
:102310004169724C696E6B206D6F64650A00000044
:102320004F6E426F617264696E673A2053746174D4
:10233000696F6E206D6F64650A0000005769466919
:10234000207374617475733A20696E2062696E64DB
:10235000696E67206D6F64650A0000005769466901
:10236000207374617475733A206F75742062696E9E
:1023700064696E67206D6F64650A0000576946697D
:10238000207374617475733A20636F6E6E65637445
:10239000656420726F757465720A0000576946693A
:1023A000207374617475733A20646973636F6E6E21
:1023B000656374656420726F757465720A0000004D
:1023C00057694669207374617475733A20636F6E40
:1023D0006E6563746564206D326D0A0057694669E5
:1023E000207374617475733A20646973636F6E6EE1
:1023F0006563746564206D326D0A00005769466933
:10240000207374617475733A2061707020636F6E0D
:102410006E6563740A000000576946692073746131
:102420007475733A206E6F2061707020636F6E6EEA
:102430006563740A0000000057694669207374617F
:102440007475733A20696E2074657374206D6F64BF
:10245000650A000057694669207374617475733AA0
:10246000206F75742074657374206D6F64650A0045
:1024700052535349206973202564200A000000004C
:1024800070B5044625462CB919A0FEF76BFD4FF038
:10249000FF3070BD1B48A9680160E9684160298A66
:1024A0000181A97C8172A0F1BF01B1F8BF00FEF7E4
:1024B000D1FF1449BF39A1F8BF00D1F8C700FEF71A
:1024C000D6FF1049BF39C1F8C7000E210D48BF38EB
:1024D00090F889208A3081548A3890F88900401C0D
:1024E0000849BF3981F88900042008700020D0E72E
:1024F0004552523A204E545020697320656D7074D5
:1025000079200A00F700002010B5FFF739F90446DA
:1025100000BFFFF735F9001BB0F5167FF9D900F0C1
:1025200045FF10BD10B500240E4890F8420000B9D8
:1025300010BD0DA0FEF716FD0A48B0F85D1043303F
:1025400001F028F804460748B0F85D00A04202D028
:102550000DA0FEF707FDFFF713F90249C1F85F0070
:1025600000BFE5E7380000205761726E696E673A78
:102570002074696D656F75742C20726573656E6467
:102580002064617461200A004552523A20726573DA
:10259000656E642064617461206572726F720A00F6
:1025A00010B502460024002302B109B9002010BD75
:1025B000022303E0D05C2044C4B25B1C481E984256
:1025C000F8D82046F3E7000070B504460D462CB954
:1025D0000FA0FEF7C7FC4FF0FF3070BD222112485C
:1025E000FDF7B9FD2A4621460F48801CFDF79AFDEC
:1025F0000D484138A0F85D50012180F84210FFF7E6
:10260000BFF809494139C1F85F000020E5E7000043
:102610004552523A206461746120697320656D707F
:102620007479200A000000007900002070B504468B
:10263000094D2CB909A0FEF795FC4FF0FF3070BD95
:102640002879401C2179884204D122210248801E29
:10265000FDF781FD0020F2E77B0000204552523A51
:10266000206461746120697320656D707479200A3B
:102670000000000070B504460D46002624B90AA0EB
:10268000FEF770FC701E70BD2A4621460E4800F011
:1026900033FF0646AE4205D00CA0FEF763FC4FF0B8
:1026A000FF30F0E73046EEE74552523A2067697A4C
:1026B0005075744461746120627566206973206589
:1026C0006D707479200A0000440100204552523A8E
:1026D000204661696C656420746F2072625772696C
:1026E0007465200A000000002DE9FF4105460E46F2
:1026F0001746002436B920A0FEF734FC601E04B053
:10270000BDE8F0816846FFF7BBFA05208DF80400AC
:10271000234890F83910D0F83900401C204AC2F8FC
:102720003900C8B28DF805008DF808500B20FEF76F
:1027300091FEADF802003A4631460DF10900FDF771
:10274000F1FC0F216846FFF72BFF8DF80E000F21DB
:10275000684600F01FFF0446002C06DA214611A04F
:10276000FEF700FC6FF00100C9E70F216846FFF794
:102770002BFF2046C3E7000067697A5265706F72CD
:102780007444617461204572726F72202C20496C10
:102790006C6567616C20506172616D0A0000000019
:1027A000380000204552523A2075617274207772C9
:1027B000697465206572726F72202564200A0000BA
:1027C0002DE9F04704460D461746089E4FF00009D4
:1027D000CA46C8461BB94FF0FF30BDE8F0873946FE
:1027E0002846FEF763FE8046B8F1000F07D1185D5A
:1027F00005F0070106FA01F1084318551EE0B8F18B
:10280000010F1BD1F0B205F00701C1F1080140FA38
:1028100001F905F00700C0F10801FF20084100EAB6
:10282000060A601C185C40EA0900611C5854185DD7
:1028300005F007010AFA01F1084318550020CCE71A
:102840002DE9F04F8FB005460C4616469946189F65
:102850004FF0000AD34600200E908046B9F1000FD9
:1028600000D027B94FF0FF300FB0BDE8F08F3A46E7
:10287000494601A8FDF756FC012F09D9394601A8A0
:10288000FEF729FEB0F1FF3F02D14FF0FF30EBE73A
:1028900031462046FEF70AFE8246BAF1000F0CD1FF
:1028A00001A8405D04F007010841C6F10802FF21BC
:1028B0001141084040EA080821E0BAF1010F1ED199
:1028C00001A9681C085C04F00701C1F10801711A34
:1028D000C1F10802FF21114100EA010B01A8405D8E
:1028E00004F0070108410E9004F00700C0F1080150
:1028F0000BFA01F040EA08080E9848EA0008404642
:10290000B2E7000002480068401C014908607047B7
:10291000200000202DE9F04704460E46154600270A
:1029200031462846FDF774FC81462146FDF7A8FC98
:102930008046FDF7E8FC07463846BDE8F087000012
:102940002DE9FF5F06460D4693464FF000082F46DF
:10295000A9462C46AA4606B125B94FF0FF3004B06F
:10296000BDE8F09F4FF0000855E0701C10F808001B
:1029700012284AD2DFE800F01D1E1F4949202122FB
:102980002349494949242E3D2A09387824490870A9
:102990000846017823A0FEF7E5FA214800780128CF
:1029A00003D100202649086002E001202449086084
:1029B0002CE02BE02AE029E028E027E026E025E0D3
:1029C00099F800101FA0FEF7CDFA1FE020A0FEF737
:1029D000C9FA1BE0A17962792379A068CDE90032B8
:1029E000CDE90210E378A27821881EA0FEF7BAFA9A
:1029F0000CE027A0FEF7B6FA2AA0FEF7B3FA9AF881
:102A000000102CA0FEF7AEFA00E000BF00BF08F1F6
:102A1000010000F0FF0830784045A6DC00209EE76A
:102A2000140000204576743A204556454E545F4CBC
:102A30004544537769746368202564200A000000C8
:102A4000B4012242525353492025640A0000000079
:102A50005452414E53504152454E545F44415441AB
:102A6000200A0000574946495F4E5450203A205BE7
:102A700025642D25642D256420253032643A2530C7
:102A800032643A253032645D5B25645D200A0000C3
:102A90004D4F44554C4520494E464F202E2E2E0A70
:102AA00000000000574946204D4F44554C45202E0C
:102AB0002E2E0A006D6F64756C6554797065203A2E
:102AC000205B25645D200A002DE9F04790B00646A2
:102AD00000270025002002900190002481468046B6
:102AE00036B98EA0FEF73EFA601E10B0BDE8F08742
:102AF000FEF74CFE02AA93499348FEF7EDFF074606
:102B0000002F70D191A0FEF72DFAFEF739FE824614
:102B1000BDF80820514692A0FEF724FA002506E0F1
:102B20008848415D93A0FEF71DFA681C85B2BDF888
:102B300008008542F4DB91A0FEF714FA814C20795D
:102B40000F2851D00ADC0E2874D2DFE800F073168B
:102B5000731A7373443973734573463D182854D000
:102B600006DC112849D0142848D0162862D135E057
:102B7000222854D02A285DD131E02046FEF7EEFE0F
:102B800060E0E279A1797EA0FEF7ECF901A800905F
:102B900008F10900BDF808301A1A6A48083000EB3D
:102BA000080103AB4846FFF733F940B9E37903A9BD
:102BB0002046019AFFF78CF875A0FEF7D3F941E0A3
:102BC0002046FEF729FE3DE02046FEF725FE204682
:102BD000FFF7D4F936E000BF00BF00BF00BF2046BA
:102BE000FFF724FD2EE02EE02046FEF715FE6BA039
:102BF000FEF7B8F9FFF788FC24E023E02046FFF752
:102C000015FD6BA0FEF7AEF91CE02046FFF70EFDA8
:102C10002046FFF735FC6EA0FEF7A4F912E020462F
:102C2000FFF704FD2046FFF77BF96FA0FEF79AF946
:102C300008E0FFE702212046FEF73EFE71A0FEF706
:102C400091F900BF0DE017F1020F0AD13D4C0121AF
:102C50002046FEF731FE71A0FEF784F96FF0010007
:102C600043E73848401E0078062850D2DFE800F0DD
:102C70004F0313232F3F00203249491E08700522BD
:102C8000B431A1F15100FFF75BFE13212D486230F2
:102C9000FDF761FA3CE000202A49491E0870012234
:102CA000BE31A1F14800FFF74BFE132125487530D6
:102CB000FDF751FA2CE000202249491E0870084611
:102CC000D0F835201B316330FFF73AFE20E00020BA
:102CD0001C49491E08700C22BF31A1F13600FFF7D4
:102CE0002FFE132117488830FDF735FA10E0002039
:102CF0001449491E08704122CB31A1F12F00FFF782
:102D00001FFE41210F489B30FDF725FA00E000BF70
:102D100000BF3046FEF7D6FC0020E6E647697A772A
:102D200069747348616E646C65204572726F7220BD
:102D30002C20496C6C6567616C20506172616D0A72
:102D40000000000039000020440100204765742085
:102D50004F6E65205061636B6574210A00000000AE
:102D600057694669324D43555B2534643A253464CE
:102D70005D3A200025303278200000000A00000073
:102D8000666C6167202578202578200A0000000005
:102D900041636B44617461203A200A007265706F70
:102DA00072743A4D4355207265626F6F74210A0048
:102DB00041636B2050524F44554354494F4E5F4D31
:102DC0004F44452073756363657373200A000000E8
:102DD00041636B204745545F5554542073756363BA
:102DE000657373200A00000041636B204745545F00
:102DF0004D6F64756C652073756363657373200A2A
:102E0000000000004552523A20636D6420636F64F5
:102E100065206572726F72210A0000004552523AB5
:102E200020636865636B2073756D206572726F72C5
:102E3000210A000010B534200A4908600A48C86019
:102E4000084600F0FDFA18B908A0FEF78BF802E07A
:102E50000BA0FEF787F84FF486710E48FDF77BF95B
:102E600010BD000044010020540100207262437232
:102E7000656174652053756363657373200A000090
:102E80007262437265617465204661696C64200AF0
:102E9000000000003800002030B587B0054600244F
:102EA000062D7CD2DFE805F003305F90BDEA01A873
:102EB000FEF7E6FE0B208DF808008B4890F83910DD
:102EC000D0F83900401C884AC2F83900C8B28DF8E1
:102ED00009000520FEF7BEFAADF80600092101A899
:102EE000FFF75EFB8DF80C00092101A800F052FBF2
:102EF0000446002C03DA21467CA0FEF733F80921B2
:102F000001A8FFF761FBEAE004A8FEF7B9FE09207B
:102F10008DF81400744890F83910D0F83900401C2E
:102F2000714AC2F83900C8B28DF815008DF81850F2
:102F30000620FEF78FFAADF812000A2104A8FFF769
:102F40002FFB8DF819000A2104A800F023FB04468A
:102F5000002C03DA214665A0FEF704F80A2104A834
:102F6000FFF732FBBBE004A8FEF78AFE09208DF8CC
:102F700014005D4890F83910D0F83900401C5A4AC6
:102F8000C2F83900C8B28DF815008DF81850062027
:102F9000FEF760FAADF812000A2104A800E09AE0FA
:102FA000FFF7FEFA8DF819000A2104A800F0F2FAE2
:102FB0000446002C03DA21464CA0FDF7D3FF0A217A
:102FC00004A8FFF701FB8AE001A8FEF759FE1320D1
:102FD0008DF80800444890F83910D0F83900401CAA
:102FE000414AC2F83900C8B28DF809000520FEF741
:102FF00031FAADF80600092101A8FFF7D1FA8DF8E2
:103000000C00092101A800F0C5FA0446002C03DADF
:10301000214636A0FDF7A6FF092101A8FFF7D4FA43
:103020005DE001A8FEF72CFE15208DF808002E4863
:1030300090F83910D0F83900401C2B4AC2F83900FA
:10304000C8B28DF809000520FEF704FAADF80600B5
:10305000092101A8FFF7A4FA8DF80C00092101A8A5
:1030600000F098FA0446002C03DA21461FA0FDF771
:1030700079FF092101A8FFF7A7FA30E001A8FEF7C0
:10308000FFFD29208DF80800174890F83910D0F876
:103090003900401C144AC2F83900C8B28DF8090042
:1030A0000520FEF7D7F9ADF80600092101A8FFF7C2
:1030B00077FA8DF80C00092101A800F06BFA04469C
:1030C000002C03DA214609A0FDF74CFF092101A8D5
:1030D000FFF77AFA03E00CA0FDF744FF00BF00BF42
:1030E000204607B030BD0000380000204552523A5B
:1030F0002075617274207772697465206572726FD1
:1031000072202564200A00004552523A2043666727
:103110004D6F6465206572726F72210A00000000B5
:1031200010B580200949086000F012F840200749D6
:10313000091F086000F00CF840200449086000F006
:1031400007F880200149091F086010BD140C0140D8
:10315000002001E0411CC8B20A28FBDB70470000D8
:1031600010B5802007490860FFF7F2FF40200549AD
:103170000860FFF7EDFF40200249091D0860FFF7D6
:10318000E7FF10BD100C014070B50024002516E0CB
:103190006006040E40200C490860FFF7D9FF0A487A
:1031A0000838006800F0800008B1601CC4B24020FC
:1031B0000549091D0860FFF7CBFF681CC5B2082D43
:1031C000E6DB204670BD0000100C014070B50446DF
:1031D000002520E004F0800018B180200F4908602D
:1031E00003E080200D49091D0860FFF7B1FF402072
:1031F0000A490860FFF7ACFF40200849091D086034
:10320000072D02D18020091F08606006040EFFF719
:103210009FFF681CC5B2082DDCDB70BD100C01409F
:1032200010B580200949086040200860FFF790FF32
:1032300080200649091D0860FFF78AFF40200349E6
:10324000091D0860FFF784FF10BD0000100C01404D
:1032500010B58020054908604020091F0860FFF76D
:1032600077FF80200149091F086010BD140C014040
:1032700010B580200C490860FFF76AFF40200A491A
:103280000860FFF765FF08480838006800F0800014
:1032900008B1012400E0002440200349091D086012
:1032A000FFF756FF204610BD100C01404FF4A06000
:1032B000FDF77EFAFEF7A7F84FF41650FDF794FCE1
:1032C000FDF712FAFDF7D8F9FDF7EEF8FDF7A6F9CC
:1032D00011A0FDF747FE1CA0FDF744FE1AE000F028
:1032E000B3F92348FFF7F0FBFDF7D8F90446012CAA
:1032F00005D120A0FDF736FE0220FFF7CDFD022C00
:1033000005D123A0FDF72EFE0020FFF7C5FDC82044
:10331000FEF77FF8E3E700002D2D2D2D2D2D2D2D0F
:10332000BBFAD6C7D4C62DD0ADD2E9D2C6D6B24CE0
:103330004544B2E2CAD4CAB5D1E92D2D2D2D2D2D8B
:103340002D2D2D2D0D0A00004B42303A4169724C53
:10335000696E6BC1ACBDD3C4A3CABD09204B423159
:103360003A57494649B8B4CEBB0D0A0D0A000000D1
:103370001400002057494649BDF8C8EB4169724C1A
:10338000696E6BC1ACBDD3C4A3CABD0D0A000000F9
:1033900057494649B8B4CEBBA3ACC7EBD6D8D0C2C8
:1033A000C5E4D6C3C1ACBDD30D0A0000012080F333
:1033B000138800BF00BF0748006800F4E0600649BA
:1033C0000843001D03490860BFF34F8F00BF00BFD3
:1033D000FEE700000CED00E00000FA0500B5024633
:1033E00012B94FF0FF3000BD50689168884201D19A
:1033F0000020F8E750689168884203D290685168CD
:10340000401AF0E7104600F014F851689368C91AA2
:10341000401AE8E730B5044614B94FF0FF3030BD2C
:10342000204600F006F805462046FFF7D7FF281A89
:10343000F5E7014611B94FF0FF3070470868FCE727
:10344000014611B94FF0FF307047C8684860C8683E
:1034500088600020F8E72DE9F04104460F46164643
:10346000002514B9681EBDE8F08117B94FF0FF3090
:10347000F9E76068A168884214D22046FFF7AEFFE2
:10348000B04201D9304602E02046FFF7A7FF0546CB
:1034900061682A463846FCF745FE6068284460604B
:1034A0002846E0E72046FFF7C4FF6168E268891A12
:1034B000401AB0420AD9354661682A463846FCF7B8
:1034C00031FE6068284460602846CCE72046FFF75C
:1034D000B0FF6168E268891A451A61682A46384671
:1034E000FCF720FEE0686060721B79192046FFF748
:1034F000B2FF05442846B6E72DE9F04104460F46E1
:103500001546002604B11FB94FF0FF30BDE8F08129
:103510002046FFF77FFFA84202D86FF00100F5E7D1
:103520006068A16888422AD82046FFF782FFA16818
:10353000E268891A461AB54213D8A0682A46394665
:10354000FCF7F0FDA0682844A0602046FFF771FF5B
:10355000E1680844A168884201D1E068A06028467B
:10356000D4E7A06832463946FCF7DCFDE068A0608D
:10357000AA1BB9192046FFF7BFFF3044C6E7A06871
:103580002A463946FCF7CEFDA0682844A0602846AC
:10359000BCE700002DE9F04105460E46002415B9B0
:1035A000601EBDE8F08100241BE0295D1D48FDF789
:1035B000D2FC00BF40211B48FDF700FC0028F9D0D9
:1035C000022C0DD3285DFF280AD155211548FDF79F
:1035D000C2FC00BF40211348FDF7F0FB0028F9D0E2
:1035E000641CB442E1D3FEF7CBF8074632463946B5
:1035F0000DA0FDF7B7FC00240DE0295D0FA0FDF73D
:10360000B1FC022C06D3285DFF2803D155210BA065
:10361000FDF7A8FC641CB442EFD30AA0FDF7A2FC9E
:103620003046BEE7004800404D4355325769466971
:103630005B2534643A2534645D3A200025303278C5
:10364000200000000A00000010B5FDF763F80446F2
:103650000648C0F801400648006818B9012003492F
:10366000087002E000200149087010BD140000201D
:10367000B401224294360008000000203800000007
:10368000840F0008CC3600083800002050050000E8
:10369000940F00080000000001020304010203046B
:1036A00006070809020406080000000000000000E8
:1036B000000000000000000000000000000000000A
:0C36C000000000000000000000000000FE
:04000005080000ED02
:00000001FF
