:020000040800F2
:10000000180400200101000889030008B302000859
:10001000850300089701000893090008000000000C
:1000200000000000000000000000000009050008BA
:100030009B01000800000000110400081D060008D4
:100040001B0100081B0100081B0100081B01000820
:100050001B0100081B0100081B0100081B01000810
:100060001B0100081B0100081B0100081B01000800
:100070001B0100081B0100081B0100081B010008F0
:100080001B0100081B0100081B0100081B010008E0
:100090001B0100081B0100081B0100081B010008D0
:1000A0001B0100081B0100081B0100081B010008C0
:1000B0001B010008810600081B0100081B01000845
:1000C0001B0100081B0100081B0100081B010008A0
:1000D0001B010008C50600081B010008990700085D
:1000E0001B0100081B0100081B010008DFF80CD0F1
:1000F00000F018F8004800474D0B000818040020D5
:100100000648804706480047FEE7FEE7FEE7FEE7B1
:10011000FEE7FEE7FEE7FEE7FEE7FEE72106000852
:10012000ED000008064C074D06E0E06840F00103D2
:1001300094E8070098471034AC42F6D3FFF7DAFF93
:10014000280C0008480C000810B5044600F0B8FC64
:10015000462000F08BFC00F0DBFC012800D110BD34
:10016000204600F083FC00F0D3FC012801D10220DE
:10017000F5E700F0BDFC0020F1E710B500F09CF8B9
:1001800000F004F81020FFF7DFFF10BD10B50120CC
:10019000FFF7DAFF10BD00BFFEE770472DE9F04121
:1001A000024600250026002000230024002791F8A5
:1001B00003C00CF00F0591F803C00CF0100CBCF15B
:1001C000000F03D091F802C04CEA050591F800C079
:1001D000BCF1000F31D0146800202BE04FF0010C6F
:1001E0000CFA00F3B1F800C00CEA03069E4220D1DD
:1001F00083004FF00F0C0CFA03F7BC4305FA03FC25
:100200004CEA040491F803C0BCF1280F06D14FF06A
:10021000010C0CFA00FCC2F814C00AE091F803C00B
:10022000BCF1480F05D14FF0010C0CFA00FCC2F8EC
:1002300010C0401C0828D1D31460B1F800C0BCF134
:10024000FF0F34DD546800202EE000F1080C4FF061
:10025000010808FA0CF3B1F800C00CEA03069E424C
:1002600021D183004FF00F0C0CFA03F7BC4305FAC1
:1002700003FC4CEA040491F803C0BCF1280F05D13B
:1002800000F1080C08FA0CF8C2F8148091F803C0C9
:10029000BCF1480F07D100F1080C4FF0010808FA33
:1002A0000CF8C2F81080401C0828CED35460BDE87A
:1002B000F08100BFFEE7000008B50121082000F032
:1002C000A9F8C020ADF8000003208DF8020014202A
:1002D0008DF8030069460348FFF760FF00F008FC53
:1002E00008BD0000000C014008B50121082000F005
:1002F00091F848208DF803000320ADF8000069460E
:100300000148FFF74BFF08BD000C014010B5114834
:10031000006818B10F48001D0068C0B9052000F042
:1003200069FB0C48006830B900BF0A480068002823
:10033000FBD0012010BD0748001D006838B900BF80
:100340000448001D00680028FAD00220F2E70020CF
:10035000F0E700000081214208B50121102000F0E3
:1003600059F810208DF803004002ADF8000003207A
:100370008DF8020069460248FFF710FF08BD000033
:100380000010014000BFFEE77047000070B500217B
:1003900000230F22C47804B3154C246804F4E064ED
:1003A000C4F5E064210AC1F10403CA40447804FAA8
:1003B00003F184781440214309010E4C0678A155BD
:1003C000047804F01F050124AC4005786D11AD00E0
:1003D00005F1E025C5F8004109E0047804F01F05A7
:1003E0000124AC40044D0678761145F8264070BDD6
:1003F0000CED00E000E400E080E100E00249014390
:10040000024A1160704700000000FA050CED00E0A0
:100410007047000029B1064A92690243044B9A6171
:1004200004E0034A92698243014B9A6170470000DD
:100430000010024030B500210022002400232D4D81
:100440006D6805F00C0121B1042905D0082923D1DC
:1004500005E0294D056022E0274D05601FE0254D90
:100460006D6805F47012234D6D6805F48034022523
:1004700005EB92421CB9214D554305600BE01D4D23
:100480006D6805F400351DB11C4D5543056002E053
:10049000194D5543056002E0174D056000BF00BFD0
:1004A000144D6D6805F0F0010909154D6B5C056888
:1004B000DD4045600F4D6D6805F4E061090A104D9F
:1004C0006B5C4568DD4085600A4D6D6805F46051E0
:1004D000C90A0B4D6B5C4568DD40C560054D6D6814
:1004E00005F44041890B074D6B5CC568B5FBF3F51E
:1004F000056130BD0010024000127A0000093D0085
:100500000000002010000020704710B500F002F835
:1005100010BD00000CB50020019000903348006829
:1005200040F480303149086000BF3048006800F472
:10053000003000900198401C0190009818B9019873
:10054000B0F5A06FF1D12948006800F4003010B177
:100550000120009001E0002000900098012843D184
:100560002348006840F010002149086008460068F0
:1005700020F0030008600846006840F002000860B0
:100580001A4840681949486008464068486008466B
:10059000406840F4806048600846406820F47C1061
:1005A00048600846406840F4E81048600846006823
:1005B00040F08070086000BF0C48006800F00070D8
:1005C0000028F9D00948406820F003000749486036
:1005D0000846406840F00200486000BF0348406899
:1005E00000F00C000828F9D10CBD000000100240FA
:1005F00000200240042808D14FF0E021096941F0B1
:1006000004014FF0E022116107E04FF0E021096999
:1006100021F004014FF0E0221161704770470000A3
:1006200010B51348006840F0010011490860084601
:100630004068104908400E494860084600680E4965
:1006400008400B4908600846006820F480200860D4
:100650000846406820F4FE0048604FF41F008860A0
:10066000FFF753FF4FF000600449086010BD000021
:10067000001002400000FFF8FFFFF6FE08ED00E06A
:1006800010B50121044800F00CF818B1012102480E
:1006900000F004F810BD000000040040CA430282CC
:1006A000704730B50246002000230024158A05EA71
:1006B0000103958905EA010413B10CB1012000E0A2
:1006C000002030BD10B540F22551054800F09CF8DF
:1006D000012804D140F22551014800F06DF810BD09
:1006E0000038014010B586B0044601210420FFF710
:1006F00091FE01218803FFF78DFE01210846FFF7D7
:1007000089FE4FF40070ADF8140003208DF8160038
:1007100018208DF8170005A91D48FFF73FFD4FF47D
:100720008060ADF8140003208DF8160004208DF8C9
:10073000170005A91648FFF731FD01940020ADF818
:100740000800ADF80A00ADF80C00ADF810000C2060
:10075000ADF80E0001A90F4800F0A6F825208DF88D
:10076000000002208DF801008DF8020001208DF8B4
:1007700003006846FFF70AFE012240F225510548B2
:1007800000F06CF80121034800F025F806B010BD18
:10079000000801400038014008B540F225510548E5
:1007A00000F032F820B1034800F0EAF8C0B200903F
:1007B00008BD00000048004010B50022002340F6AC
:1007C0006A14A14200D100BF0A1201249440A3B2CE
:1007D000DC43048010BD21B1828942F40052828141
:1007E00004E082894DF6FF731A4082817047024609
:1007F0000020B1F5007F00D100BF13880B400BB182
:10080000012000E00020704770B50246002400235C
:100810000025002040F66A16B14200D100BFC1F3A6
:10082000421501F01F03012606FA03F3012D02D140
:100830009689334006E0022D02D1168A334001E04A
:10084000968A33400C12012606FA04F416883440C6
:1008500013B10CB1012000E0002070BDF0B50346DB
:10086000002400260025002040F66A17B94200D176
:1008700000BF1846C1F3421401F01F06012707FA12
:1008800006F5012C01D10C3004E0022C01D110300E
:1008900000E014301AB107682F43076002E00768D0
:1008A000AF430760F0BD00002DE9F04786B0054674
:1008B0000E460024A24600BFA1460027B08900B121
:1008C00000BF2F462C8A4CF6FF700440F08804438A
:1008D0002C82AC894EF6F3100440B088318908436D
:1008E000718908430443AC81AC8A4FF6FF40044051
:1008F000B0890443AC8201A8FFF79CFD1F488742E2
:1009000002D1DDF810A001E0DDF80CA0A88900F408
:10091000004040B10AEBCA0000EB0A103168490000
:10092000B0FBF1F807E00AEBCA0000EB0A103168EF
:100930008900B0FBF1F86420B8FBF0F00401200955
:10094000642101FB1089A88900F4004040B13220E5
:1009500000EBC900B0FBF1F000F00700044308E031
:10096000322000EB09106421B0FBF1F000F00F0021
:1009700004432C8106B0BDE8F08700000038014038
:1009800001468888C0F308007047C1F308028280DE
:10099000704700BFFEE70000014A024900F013B8AB
:1009A000390A00081400002002E008C8121F08C11C
:1009B000002AFAD170477047002001E001C1121FE0
:1009C000002AFBD170472DE9F04116460F46044638
:1009D000002503E03946B047641C6D1C20780028D0
:1009E000F8D12846BDE8F08110B56FF00400FFF79C
:1009F00001FE10BD014642F228324A434FF0E02387
:100A00005A6100229A611A46126942F001021A6183
:100A100000BF4FF0E022106900F48032002AF8D0C5
:100A20004FF0E022126922F001024FF0E0231A6138
:100A300000229A617047000070B504460D46A1B2CD
:100A40000548FFF7A2FF00BF80210348FFF7CFFE54
:100A50000028F9D0204670BD00380140002001E098
:100A6000411CC8B20A28FBDB7047000070B5044681
:100A7000002520E004F0800018B180200F490860B4
:100A800003E080200D49091D0860FFF7E7FF4020C3
:100A90000A490860FFF7E2FF40200849091D086085
:100AA000072D02D18020091F08606006040EFFF7A1
:100AB000D5FF681CC5B2082DDCDB70BD100C0140F1
:100AC00010B580200949086040200860FFF7C6FF84
:100AD00080200649091D0860FFF7C0FF4020034938
:100AE000091D0860FFF7BAFF10BD0000100C01409F
:100AF00010B58020054908604020091F0860FFF7F5
:100B0000ADFF80200149091F086010BD140C014091
:100B100010B580200C490860FFF7A0FF40200A496B
:100B20000860FFF79BFF08480838006800F0800065
:100B300008B1012400E0002440200349091D086099
:100B4000FFF78CFF204610BD100C01404FF4A06051
:100B5000FFF754FCFFF748FF4FF41650FFF7C2FDB4
:100B6000FFF7FAFBFFF7C0FBFFF707FB0BA0FFF750
:100B700013FF15A0FFF710FF0FE0FFF7C7FB0446B8
:100B8000012C02D11AA0FFF707FF022C02D11FA0EF
:100B9000FFF702FFC820FFF72DFFEEE72D2D2D2DCB
:100BA0002D2D2D2DBBFAD6C7D4C62DD0ADD2E9D26E
:100BB000C6D6B2B2E2CAD4CAB5D1E92D2D2D2D2D9B
:100BC0002D2D2D2D2D0D0A004B42303A4169724CCE
:100BD000696E6BC1ACBDD3C4A3CABD09204B423101
:100BE0003A57494649B8B4CEBB0D0A0D0A00000079
:100BF00057494649BDF8C8EB4169724C696E6BC1F3
:100C0000ACBDD3C4A3CABD0D0A0000005749464974
:100C1000B8B4CEBBA3ACC7EBD6D8D0C2C5E4D6C35C
:100C2000C1ACBDD30D0A0000480C00080000002034
:100C300018000000A8090008600C00081800002037
:100C400000040000B80900080000000001020304CD
:100C50000102030406070809020406080000000058
:04000005080000ED02
:00000001FF
